curl -H 'Content-Type: application/json' -d '{"jsonrpc":"2.0","id":"0","method":"personal_unlockAccount","params":["0xa73810e519e1075010678d706533486d8ecc8000","1234",3600]}' http://127.0.0.1:46005

curl -H 'Content-Type: application/json' -d '{"jsonrpc":"2.0","id":"0","method":"eth_sendTransaction","params":[{"from":"0xa73810e519e1075010678d706533486d8ecc8000","to":"0x82c3a9d971fbb999ed1b541aa1ac65793a368bb5","value":"0x100"}]}' http://127.0.0.1:46005

curl -H 'Content-Type: application/json' -d '{"jsonrpc":"2.0","id":"0","method":"eth_getTokenBalance","params":["0xa73810e519e1075010678d706533486d8ecc8000","latest","0x0000000000000000000000000000000000000001"]}' http://127.0.0.1:46005

curl -s -X POST http://127.0.0.1:18082 -d '{"jsonrpc":"2.0","method":"personal_unlockAccount","params":["0xa73810e519e1075010678d706533486d8ecc8000","1234",3600],"id":67}' -H 'Content-Type:application/json'

curl -s -X POST http://127.0.0.1:18082 -d '{"jsonrpc":"2.0","id":"0","method":"ltk_balance","params":[{"index":"0x0","token":"0x0000000000000000000000000000000000000001"}]}' -H 'Content-Type: application/json'

curl -s -X POST http://127.0.0.1:18082 -d '{"jsonrpc":"2.0","id":"0","method":"ltk_signUTXOTransaction","params":[{"from":"0xa73810e519e1075010678d706533486d8ecc8000","nonce":"0x1","dests":[{"addr":"bwcJ9V3z7uW1fbYm2L6HuCGiuaTSVr5dq7ir49ViFBNeYYQqMuUM6S16aWKz4HmGRFGDb5RnfVBv7uGeySjkzUkmEbGKRN","amount":"0x21e19e0c9bab2400000","remark":"0xa73810e519e1075010678d706533486d8ecc8000"}]}]}' -H 'Content-Type: application/json'

curl -s -X POST http://127.0.0.1:18082 -d '{"jsonrpc":"2.0","id":"0","method":"ltk_sendRawUTXOTransaction","params":["0xf904ccf857cf4852c16c3232f84e018a0220cfc478d163c80000a0fe0a2c612ce1b84c78a230597f1c521546e45f85f89b25cf886e6f8873905403a03665f6222ef3e93e4f36a4b6e28218ca42d01f9e854b7177e383812f15d7f193f84c5842699137a517f843a0bd6adb841f2d4a235792bb1499b3e56fab9c749b629ba620a32ab6f124c909be80a04bdcc5ada5b7ccbf6e538f9f4d615c1146693483270d86c02e55b74481a05028940000000000000000000000000000000000000000a0646c469f0058e74d5c383603157dd2c0bafb91f8197fd84d44bbfd6481753cd7e1a0924859d87e2bc96669f8d0b3096284a0f53759848e1d43b29ce4ca59ed87159a8902b5e3af16b188000080f84582e3e6a0a91fbab9c431d35ae6b3443931a7f73a541342bb7e3d3e1ff9642b750727975ba01742bffc570c210ef7392944a4da18521c13f379e6590606cd86e119fe535d75f90378f8b080c0f865f863a01235e1f83a3adcbe5bc331d1f568546e3e202592ba39094436cf38bf06b0b50ca0cc57112a4e108e9cf9b4ad0ea8503eccd210aeef34c0a2d6ca63a46fcba60507a00000000000000000000000000000000000000000000000000000000000000000f844f842a00000000000000000000000000000000000000000000000000000000000000000a0180373776bda2974e1332d66412037fd1b6327aea4fc45d7e76ef0041b921b4a80f902c3c0f902bcf902b9a02eea02dff80f57bc4307f11c2963bb7afbaa07e050113209be34dcef6b346192a0d61ec36070dcd007be0016cc1a6b7af037d4707ecb6f61c6c019aeb66827f0e6a067bae31e4c5049ccf70eda77c519cbaede4b4dc3a06fae1d580fe67b7b45ca30a0bca6e505b241162c1a12d79d69732260b5cba2da63f01852325b45fbd806d960a0f1bce4905c936b0742684c589eee3253a72f3e9dd02a4a7b49d259b243507f09a0464f37bba58d9b931889c2b280350a325d1c4ffb22b002878b3d8633983c490df8c6a037c4beedd0fe09a6d9e98a4797011a57af25769083447425394033a06e23413ca0647c8dea50be84453cfc0fbf74061d8446aa6867bafe198a66d2e36a3076e7cda0426a182328d4de72183c9dc1b542c0b28017d4c63d4bf3e6d31a5c55c4201040a07af2af729e53a5852ff8243d029eee3e80159ffe8ad125be76b190b7b867956ea08673b33a7bac27c9c64c6a13dc3cd524730c73a27da587fc272e2b01a05f0d38a08c2c935c70d96a547e773acd8e4bc0d73388f515a7d81f13ddc51d9dcbf26b4ef8c6a08bc0ec2c0ba89e697ba06c1bde842227bad785e41944edbbe01859c086fd62e7a06e7291e242f2d845ca07b327a5407c66c2e1d80b969299b7666498b4eac38e09a00b4eab07b33e3b17f531e93da1548318ef38ee491cbf818b8ef34873d7d6db60a05ea05567787cb2f1d8f8596efb3e44c8b1965ea9f46f08b05b0c160b7fe98edaa0439ecb978ad1148f8b35eb221745d6a41e57b1db06bebfb4f094bd1af1164625a0abcf056abcc2ce4daa3b2e50aca009a935347581eb764480ce945ce3de859a21a055fe860ef599be434e80c9ed31804b635fd1f5c2b1846a2ca9702f32b0841e04a0cc72ecffce604e66c92860dc427c1dff0be9f8cefc79870c1983e7fbccf67c0fa0d95e743c9248550c3d4f7487916c0c023a6b07ae82aee6fe6095adeaab7a4f03c0c0c0"]}' -H 'Content-Type: application/json'

curl -s -X POST http://127.0.0.1:18082 -d '{"jsonrpc":"2.0","id":"0","method":"ltk_signUTXOTransaction","params":[{"from":"0xa73810e519e1075010678d706533486d8ecc8000","nonce":"0x2","token":"0x0000000000000000000000000000000000000001","dests":[{"addr":"bwcJ9V3z7uW1fbYm2L6HuCGiuaTSVr5dq7ir49ViFBNeYYQqMuUM6S16aWKz4HmGRFGDb5RnfVBv7uGeySjkzUkmEbGKRN","amount":"0x100","remark":"0xa73810e519e1075010678d706533486d8ecc8000"}]}]}' -H 'Content-Type: application/json'

curl -s -X POST http://127.0.0.1:18082 -d '{"jsonrpc":"2.0","id":"0","method":"ltk_sendRawUTXOTransaction","params":["0xf904c2f84fcf4852c16c3232f84602820100a0689bc2725b8551a2ddc8b492f6950860e72eedbf7841f3c289b624b45dca3201a0a830e7a532b268199ae9021761d9e8f0e2daf69208884a376832b2f3460b7f6df84c5842699137a517f843a002cf77e8a72918c02c83a5c8fe8ec56b4ecf02ae69bcb30d9b438c4c4a55120280a03eb0bfdebca49527d3fa7a319eb8d2079f7a8a2ebdc580c21f0ad26ea336a299940000000000000000000000000000000000000001a07f95539d9d778e028241d5681f34945c97588bd7ee45f01113416e4d23a71656e1a0edb907666cd82a6f8a8ef46efa6df7593dc0ba0495cd811c12ee6397d792aa2287b1a2bc2ec5000080f84582e3e5a066670bbcfb1483a22c8af460778b2c4250611fdac3acb36934d150db1bd4db53a03b149e39624b69a4663e231d6bea4fbd10486d60ac741574cc1869949e0092edf90378f8b080c0f865f863a05f44c620366d60859edf1f530d544a49a20d078aeaf9ecc08981a70314bc0700a0fb6a7d513136bdb31890aa15aa8394e22475b2a7796fc3aec97dd1621a611a0ba00000000000000000000000000000000000000000000000000000000000000000f844f842a00000000000000000000000000000000000000000000000000000000000000000a0a830e7a532b268199ae9021761d9e8f0e2daf69208884a376832b2f3460b7f6d80f902c3c0f902bcf902b9a030c2b3ed41fbaf387935580d31fe4c7653517f4af32be8371c63e9d8dd395aeca0b752d49692538961b7908012d348200b28af3b2594afffcd4605dd399244c849a055ebb184984fdd991a234ecbb22a3d45df0f43f6358703b97f1cebaed9189826a0286c4eb3462ff0c03125dbfca8a3de527f78449cfcdc0bf07ab58a578703c6a0a02a7d27b2da9402ded72b2f9269a30f03e9935626a6ea0611c3bd21933ea03c0aa0fef41d259acd709e864cfaa4cabd176b072ad1ce8981b1e39ca4094e3a6bb302f8c6a09e2a0010c1c67efd76f0e7905beafdaa34e4f0f7268b849507c5d2b7c95e088ca0d315312c0e108564d220089a4c63028fc68dd70358eda9bb7155c9ba6ee9d8aca0d14092801afb4b635f179b094846a3b2179e78d33aa82d27b14fcb99749e551aa011015515590033ec145ddce3060bc2dc1cc0aee111c48a0a4b7d5bdd3d86da23a031ef0bcd076a61f5eb8199095d3c63778e56c2a9ef8510515e60c9066b676a9fa0848da4c96aa43378c4d6d27798f91a350fdffd2c4123d0169ff8702baf00899df8c6a0b99ebe66f880052945b9f8575384184e85cfa6824a9b21c8968280e7f7b9c03ea0586797872cb7249e7d85ee25eb46c6d3753c0b3efe5ad1876c5b68e15d1549fba0af6bda792eba242bf131149af263e56bcc9a73d22488718089c5d4c54a2d6c94a070c4ba28e474b0b402b33636a9eb463a39f37e4d7d2579d92ca1983ee4f1bfd0a0960c7cb9a6aab1fe3ddbebc5d9b160960618fef797c37b9dcbf4f64194e7b57ba0da26dc559a89b68efb463d36efe930880de8c65154d9a5f6838933229c7a3b1fa0662270f0a97114e2ae20defe814a5795e96576da71635ccedb7dea9aa1cbca09a0568368d4ea646560ae2b6540d89c4ddfc901f9a1a9095f5c3e3804d2dbe40006a0c20bdf51c88a64ccb6a8a828eea509ae89918919a62e3e7d782b73d0f9595401c0c0c0"]}' -H 'Content-Type: application/json'

curl -s -X POST http://127.0.0.1:18082 -d '{"jsonrpc":"2.0","id":"0","method":"ltk_signUTXOTransaction","params":[{"dests":[{"addr":"oRWauC7hnjcupPN2UMzT3fTVpv99jv2ZEmr4QV6kYjG8XaeWHTNBRXeQq2yeEHgbm85Zqu6DBjTLYZxPEJUwRugrgeUkyY","amount":"0x4563918244f40000"}]}]}' -H 'Content-Type: application/json'

curl -s -X POST http://127.0.0.1:18082 -d '{"jsonrpc":"2.0","id":"0","method":"ltk_sendRawUTXOTransaction","params":["0xf9063feb10c698b1d37308e3c180a015e5425b939eecbd8cf6ff35a27dbea79c3127cb9528dcf4e1fa517d11cd0cf6f8985842699137a517f843a0bda3439372cdf281311d0bb283457b0e0ce5088f9f9bf5e196763b5786bf5bf580a04a20d9c0807aa2d642cc6f7e6ca2a08bf8c1dce33944ebe995e5c09130fa3ab85842699137a517f843a0eea2184d4ad8850c39747ede96a5de75214197c2b85988cfd52ec1727cc93e5180a074fa2984d85a5fc872b568bac06827b4577b2965f20b5d37928bba17e4d9fc77940000000000000000000000000000000000000000a07053f746737957aeb55d4443a63baa910e4cc4bcb65692cf087d33301737aa98f842a08e43a805177f48c3936dcae72f5430cc5e29567681ac56698d464ba21248c4b2a0c3c1b4d88bec8ee57cac6ab399d548a82a9bcae7b01f9a2aa25149b7e87e94ed8902b5e3af16b188000080c3808080f904edf9015903c0f8caf863a0292093f50ed5fdccc97338f04f8b313457e82e9516b7a333c627a3d0c202ce02a077ede32121d5317f80d5f6b375191c299a28179ae42751ab3db3cd6025300c0ea00000000000000000000000000000000000000000000000000000000000000000f863a0c3d805a1e75b49f5a016f2fc5ae758b7fa4eed04f5800c62d68b25d4fa1c2907a080f4de7c6ada4c10164f76adc0e6ca8187ade3a4d9cfa98c7a57470ea9d9280fa00000000000000000000000000000000000000000000000000000000000000000f888f842a00000000000000000000000000000000000000000000000000000000000000000a0c6456efe7b10205ca70cd86c5265bde5b605d6f887af9ae4947d6e90a468ea0ef842a00000000000000000000000000000000000000000000000000000000000000000a055a6a0ff4575a1e49df45fd7f6d90398e58f33201319da407479ae67ae8cea9180f9038ec0f902fef902fba007a404e2847f8d06ed40d85a242fe535c70e38136c6c3aed099091fe8dc293fba00fb1bb66f3e7ab6833e44ef08d0c658c5e0ca9f1f75186740d3611a6cdcdda62a0764a6f7adf72b65118f2a0bead3f9e589ec86a9a23af037dc5f95159f4f0feb4a02733c55778ccbd1a1ebf87c60a892f186f1899a449c1f07022a35f861144b240a060281082e9abb1b5220459b1a927736ca7e578d5f7bc71fd6df86f32cee9020fa04c8a232846235d4bdd473adcf13d733bf1e86c96239a3abbc33dd8d9c36ed704f8e7a0405fb8e50ec270f4511b4abbc7c00885a42233e12b2a202f0a12d219009ecacaa0e06a7082e4cd517b44274c95de71f3185b1cf4bf835fc5cc9f03c240271cdb9da069fa857a7320ef018700f955b68d6c069400ef8120c2142c4315ff6948cc81a0a0ce52c4a0501cc49708ba08f5bab43d9cb6e4047a6e1dd130e000e4c429daf446a06e06d0c0fe806865ca9e0e4ef96ec5056d92e8d19c7debe14e061a099e824e8ba0a6244bec1258e69739d5dabec48a672e7f6140a965139f5308b553146cdd82f9a0a9b2bc25be41102812aede23444ad240b5d81a3e6415b27e05312cebad3dda3ff8e7a05ee3c7c4ad43c9f7c608a4e501ecf12a287469aa40b0f281ceed2e85b7c8faa6a0d4e4b956e9ce96ce68142cd6dac54770a12ceea4ea01dc46b7d571b927afe87ea067f6a0345f76ade3f82e39379e595d2798dc8cf572c580e01054e2e0ba6f70f7a056e2cd55295e8844fa5bc60ca54188cc68e555766431e4afd0abaaec0e158cf9a087b3a0f13b596c1d891eb0535511ee954f04d818442fa5d5675fcfd69e22cfe3a04be88318e209194f2b811cfae375f483365a763bc182a9fbfb9cf0cdea13d872a07432a36fa2a6c176ab6d8d61c356ce041bf2cfc3f3889d7468572377a44ca425a02b4df7da7547904f484df8099797b57584bfdf2feee69a1faadad050c736a50fa022f6412e2e5bb5a5482194c6662aca8ab29a390575f55e3295a72f9536dcfc05a0c9475c9e0bb50b69ccea2588c8d0ae59668afdd9072a812dabc6480fd885c80fe3e2c0a00000000000000000000000000000000000000000000000000000000000000000e1a02e2d9314ff8343386b274dfc02b60dc5844d9928669d26c5c54302156e53cc7df844f842a04d93bcb55c63854ec40db82170713cbbd25a129f72c22bd7e056812de17fc604a06adbc0b2280b241f3cc5546f2bba8fc872a56ec4052e14efed248b9cc0f83500"]}' -H 'Content-Type: application/json'

curl -s -X POST http://127.0.0.1:18082 -d '{"jsonrpc":"2.0","id":"0","method":"ltk_signUTXOTransaction","params":[{"token":"0x0000000000000000000000000000000000000001","dests":[{"addr":"oRWauC7hnjcupPN2UMzT3fTVpv99jv2ZEmr4QV6kYjG8XaeWHTNBRXeQq2yeEHgbm85Zqu6DBjTLYZxPEJUwRugrgeUkyY","amount":"0x10"}]}]}' -H 'Content-Type: application/json'

curl -s -X POST http://127.0.0.1:18082 -d '{"jsonrpc":"2.0","id":"0","method":"ltk_sendRawUTXOTransaction","params":["0xf90681eb10c698b1d37308e3c180a0eb03201f545444bbd70658e116abbbecb8dca0e773640c5ee5d443a7cab52d50f8985842699137a517f843a0e6c2621febd574e732d939598b55e60dff4ba02fffe4647048e3565869d4a1d880a01268de866aa059cd437e7ff8e2bc44683a1b62f21c7656fd7fcaeddf991610755842699137a517f843a075d8effd3c28e102ade4981dd660abd23d7b81c6600c0b0fec97ed89676debec80a0c72e2e8fcb094bccdebe9dec302cd15ae3280d655db96efb872c5a6e5c305f2e940000000000000000000000000000000000000001a0db9d77ed742a1957557a9644903d70de7a35eb580f53a2b87717774ea8c9b201f842a0c9d8cd5e3b57f150018ac853cdc7d2538e1d954880a4587a175d84681d241443a0fb9902644bb2e16614a7aba684f546cc6bd5b9b3f13c01994e67911f2ba33d718902b69551d2e04d000080f84482e3e5a0bef6dd1b865ce225738965d4de82bcb7017990a1b9c064742cb68ec4575f3ed49f1318b850947fd310110f04c9cbbd70b7ed7fcb7b551bc05169e453fe7bc1f1f904edf9015903c0f8caf863a0c1ec7fbda4e964e6c36e9a99185c25263a85e60ea4cdb6e2a253fc3c43c7a40ba016e12d0451250389939d31765a336916b921d10ae808c9b04ce86224132a1d03a00000000000000000000000000000000000000000000000000000000000000000f863a072702af244c14822289c288db55e388ddeb03c18e5f3ba17b539352b0fd44905a026bab81c0b097eb65228b60ad244a56dd059046edeae50d15916553e9e962101a00000000000000000000000000000000000000000000000000000000000000000f888f842a00000000000000000000000000000000000000000000000000000000000000000a0890fb4517a91ac4e07dd11ad965d61a8ddd3109987ecf10437373c188d67f3c2f842a00000000000000000000000000000000000000000000000000000000000000000a0c41aaf6dc16d663861f337dee3f3684da83d521f9de894c8b2991d06ddcaeb0080f9038ec0f902fef902fba08cd28cca94d0cc227bfc7253f710bd9888e4fe767d0f59770d0dd3408bf05989a055c03c1930081723d6db48692515ab5eb27d6d799dd3a92d3bf271cd28a63406a09b965f1b9b7b52559971eee54d955b8bfd152c01e0bc5f18993fa40b75f5a78fa0b1906308f1a93e8d6c88c88acd0060112b829a2c64fe6a78b7d0e942026a7a90a08f45faaefa59afe7467c7cd10839b113fdce451cc7eed7c1f3d965380794850fa0e34325dd0dfca6e4de1a61a0bc76c73b72493a9783c8a15903671983d6609e02f8e7a0416855ecbc3ccd095f0323182d97551cd920587a18e30c0a5393fa0a9b3b7905a0ba66aba4103153cd8e31c13632aa59b5e71abcfe6f5b7e273fe40fb05ff8b94fa0d6bd7bce635bed4ab9aa08d9270411b19955e468e720307bf16fd8b670fe9033a089bb966d5da588ea137593aa430d3c3e427e9a1f618f9d79bbbc81420881a8a6a02e841bf6f38a3d168dd913ecb1a2c8d068d10caf18c6b172f29adbdcfc606525a0ad52103d21d4fb4dd2dccb985c311d0142216ec0e007f87b01c9f32fd74a46f5a0f936403b08b7424aa32839608bd90e44773363fbd5381508b8a7bf576916a46df8e7a0145fc72430632f5e26bb0ee6745217c1824a21d8529993c2ad615b9d7d922384a01471ec319fa0e68115137f5884d210669b9b99434918ab8528f3166f5a709079a025cbcc34a45e2f0c03a101818858a56f9bcd5e4f0116e139805f76fcc49cf18da05644b6fb60498ca78c772f2770bc868a164741fd0a24c2ced66bd5cbedf6c112a0b6ddb679675c07a354b47aaac9de6f5f3c1d220e20d8231d69c148f1ff41fd0da0b90f57c1e8243f8a01a382c926a6a3d013e42a277a44fbc00f61ec82f88c086fa00d127f7fcb554128967b6daf2ff75492af0887bd2d729198510f014323637ef8a0a7edc7a449039ae292f0b939f46ad48cae69915e17a8efb62c2c15567774e40aa0fb56cf205e95e2248064026342cd8ee062060effbdfd5b2a88991eaa3d95b405a0709371a0d7db60fa72817d0452c8a0236e75581c8b8f0ccd079e3148783f6a02e3e2c0a00000000000000000000000000000000000000000000000000000000000000000e1a041542fcf98132ecc0e9b01e6ed123e232090e9ff1ddc4670e9344463ea5755f0f844f842a082c9eb014cc47564a0105c0d7eee8894541c0f1e6bc9f6f695332e13689c7f05a0af1d6067cce9269c3239d05797fcb71c98581fce8ab57f5c9be331afb7d9f500"]}' -H 'Content-Type: application/json'

