UPDATE + 0x54fb1c7d0f011dd63b08f85ed7b518ab82028100 f87980038e0fffffffffffffffffffffffffffe53194c7c22a8e08d3b0643a55e7c087a416171b45922f8e0fffffffffffffffffffffffffffa0c5d2460186f7233c927e7db2dcc703c0e500b653ca82273b7bfad8045d85a470a0c5d2460186f7233c927e7db2dcc703c0e500b653ca82273b7bfad8045d85a470 {"Nonce":0,"Credits":3,"Balance":324518553658426726783156020576255,"Tokens":{"0xc7c22a8e08d3b0643a55e7c087a416171b45922f":324518553658426726783156020576255},"Root":"0xc5d2460186f7233c927e7db2dcc703c0e500b653ca82273b7bfad8045d85a470","CodeHash":"xdJGAYb3IzySfn2y3McDwOUAtlPKgic7e/rYBF2FpHA="}
UPDATE + 0xe6a36f2e34afccdd93c8e657a9795d5d26fb3344 f87980038e0fffffffffffffffffffffffffffe53194c7c22a8e08d3b0643a55e7c087a416171b45922f8e0fffffffffffffffffffffffffffa0c5d2460186f7233c927e7db2dcc703c0e500b653ca82273b7bfad8045d85a470a0c5d2460186f7233c927e7db2dcc703c0e500b653ca82273b7bfad8045d85a470 {"Nonce":0,"Credits":3,"Balance":324518553658426726783156020576255,"Tokens":{"0xc7c22a8e08d3b0643a55e7c087a416171b45922f":324518553658426726783156020576255},"Root":"0xc5d2460186f7233c927e7db2dcc703c0e500b653ca82273b7bfad8045d85a470","CodeHash":"xdJGAYb3IzySfn2y3McDwOUAtlPKgic7e/rYBF2FpHA="}
UPDATE 0xc7c22a8e08d3b0643a55e7c087a416171b45922f 822710
UPDATE 0xc7c22a8e08d3b0643a55e7c087a416171b45922f 822710
UPDATE + 0xc7c22a8e08d3b0643a55e7c087a416171b45922f f85f010280d93194c7c22a8e08d3b0643a55e7c087a416171b45922f822710a0126f647adb1f97e572f3747753fcc91f89ceb8932d7061486e214ff5b612a8baa0403b1673129d2b0d33087f7c21706bb9fd47d1a6b9d9cbe8ec7f27d5c12f49f8 {"Nonce":1,"Credits":2,"Balance":0,"Tokens":{"0xc7c22a8e08d3b0643a55e7c087a416171b45922f":10000},"Root":"0x126f647adb1f97e572f3747753fcc91f89ceb8932d7061486e214ff5b612a8ba","CodeHash":"QDsWcxKdKw0zCH98IXBruf1H0aa52cvo7H8n1cEvSfg="}
UPDATE + 0x54fb1c7d0f011dd63b08f85ed7b518ab82028100 f87901058e0fffffffffffffffffffffffffffe53194c7c22a8e08d3b0643a55e7c087a416171b45922f8e0fffffffffffffffffffffffffffa0c5d2460186f7233c927e7db2dcc703c0e500b653ca82273b7bfad8045d85a470a0c5d2460186f7233c927e7db2dcc703c0e500b653ca82273b7bfad8045d85a470 {"Nonce":1,"Credits":5,"Balance":324518553658426726783156020576255,"Tokens":{"0xc7c22a8e08d3b0643a55e7c087a416171b45922f":324518553658426726783156020576255},"Root":"0xc5d2460186f7233c927e7db2dcc703c0e500b653ca82273b7bfad8045d85a470","CodeHash":"xdJGAYb3IzySfn2y3McDwOUAtlPKgic7e/rYBF2FpHA="}
